{
  "_format": "hh-sol-artifact-1",
  "contractName": "NFTCollection",
  "sourceName": "contracts/NFTCollection.sol",
  "abi": [
    {
      "inputs": [],
      "stateMutability": "nonpayable",
      "type": "constructor"
    },
    {
      "anonymous": false,
      "inputs": [
        {
          "indexed": true,
          "internalType": "address",
          "name": "owner",
          "type": "address"
        },
        {
          "indexed": true,
          "internalType": "address",
          "name": "approved",
          "type": "address"
        },
        {
          "indexed": true,
          "internalType": "uint256",
          "name": "tokenId",
          "type": "uint256"
        }
      ],
      "name": "Approval",
      "type": "event"
    },
    {
      "anonymous": false,
      "inputs": [
        {
          "indexed": true,
          "internalType": "address",
          "name": "owner",
          "type": "address"
        },
        {
          "indexed": true,
          "internalType": "address",
          "name": "operator",
          "type": "address"
        },
        {
          "indexed": false,
          "internalType": "bool",
          "name": "approved",
          "type": "bool"
        }
      ],
      "name": "ApprovalForAll",
      "type": "event"
    },
    {
      "anonymous": false,
      "inputs": [
        {
          "indexed": true,
          "internalType": "address",
          "name": "previousOwner",
          "type": "address"
        },
        {
          "indexed": true,
          "internalType": "address",
          "name": "newOwner",
          "type": "address"
        }
      ],
      "name": "OwnershipTransferred",
      "type": "event"
    },
    {
      "anonymous": false,
      "inputs": [
        {
          "indexed": true,
          "internalType": "address",
          "name": "from",
          "type": "address"
        },
        {
          "indexed": true,
          "internalType": "address",
          "name": "to",
          "type": "address"
        },
        {
          "indexed": true,
          "internalType": "uint256",
          "name": "tokenId",
          "type": "uint256"
        }
      ],
      "name": "Transfer",
      "type": "event"
    },
    {
      "inputs": [
        {
          "internalType": "address",
          "name": "to",
          "type": "address"
        },
        {
          "internalType": "uint256",
          "name": "tokenId",
          "type": "uint256"
        }
      ],
      "name": "approve",
      "outputs": [],
      "stateMutability": "nonpayable",
      "type": "function"
    },
    {
      "inputs": [
        {
          "internalType": "address",
          "name": "owner",
          "type": "address"
        }
      ],
      "name": "balanceOf",
      "outputs": [
        {
          "internalType": "uint256",
          "name": "",
          "type": "uint256"
        }
      ],
      "stateMutability": "view",
      "type": "function"
    },
    {
      "inputs": [
        {
          "internalType": "uint256",
          "name": "tokenId",
          "type": "uint256"
        }
      ],
      "name": "getApproved",
      "outputs": [
        {
          "internalType": "address",
          "name": "",
          "type": "address"
        }
      ],
      "stateMutability": "view",
      "type": "function"
    },
    {
      "inputs": [
        {
          "internalType": "address",
          "name": "owner",
          "type": "address"
        },
        {
          "internalType": "address",
          "name": "operator",
          "type": "address"
        }
      ],
      "name": "isApprovedForAll",
      "outputs": [
        {
          "internalType": "bool",
          "name": "",
          "type": "bool"
        }
      ],
      "stateMutability": "view",
      "type": "function"
    },
    {
      "inputs": [
        {
          "internalType": "address",
          "name": "recipient",
          "type": "address"
        },
        {
          "internalType": "string",
          "name": "uri",
          "type": "string"
        },
        {
          "internalType": "string",
          "name": "prompt",
          "type": "string"
        }
      ],
      "name": "mintNFT",
      "outputs": [],
      "stateMutability": "nonpayable",
      "type": "function"
    },
    {
      "inputs": [],
      "name": "name",
      "outputs": [
        {
          "internalType": "string",
          "name": "",
          "type": "string"
        }
      ],
      "stateMutability": "view",
      "type": "function"
    },
    {
      "inputs": [],
      "name": "owner",
      "outputs": [
        {
          "internalType": "address",
          "name": "",
          "type": "address"
        }
      ],
      "stateMutability": "view",
      "type": "function"
    },
    {
      "inputs": [
        {
          "internalType": "uint256",
          "name": "tokenId",
          "type": "uint256"
        }
      ],
      "name": "ownerOf",
      "outputs": [
        {
          "internalType": "address",
          "name": "",
          "type": "address"
        }
      ],
      "stateMutability": "view",
      "type": "function"
    },
    {
      "inputs": [
        {
          "internalType": "uint256",
          "name": "tokenId",
          "type": "uint256"
        }
      ],
      "name": "promptDescription",
      "outputs": [
        {
          "internalType": "string",
          "name": "",
          "type": "string"
        }
      ],
      "stateMutability": "view",
      "type": "function"
    },
    {
      "inputs": [],
      "name": "renounceOwnership",
      "outputs": [],
      "stateMutability": "nonpayable",
      "type": "function"
    },
    {
      "inputs": [
        {
          "internalType": "address",
          "name": "from",
          "type": "address"
        },
        {
          "internalType": "address",
          "name": "to",
          "type": "address"
        },
        {
          "internalType": "uint256",
          "name": "tokenId",
          "type": "uint256"
        }
      ],
      "name": "safeTransferFrom",
      "outputs": [],
      "stateMutability": "nonpayable",
      "type": "function"
    },
    {
      "inputs": [
        {
          "internalType": "address",
          "name": "from",
          "type": "address"
        },
        {
          "internalType": "address",
          "name": "to",
          "type": "address"
        },
        {
          "internalType": "uint256",
          "name": "tokenId",
          "type": "uint256"
        },
        {
          "internalType": "bytes",
          "name": "data",
          "type": "bytes"
        }
      ],
      "name": "safeTransferFrom",
      "outputs": [],
      "stateMutability": "nonpayable",
      "type": "function"
    },
    {
      "inputs": [
        {
          "internalType": "address",
          "name": "operator",
          "type": "address"
        },
        {
          "internalType": "bool",
          "name": "approved",
          "type": "bool"
        }
      ],
      "name": "setApprovalForAll",
      "outputs": [],
      "stateMutability": "nonpayable",
      "type": "function"
    },
    {
      "inputs": [
        {
          "internalType": "bytes4",
          "name": "interfaceId",
          "type": "bytes4"
        }
      ],
      "name": "supportsInterface",
      "outputs": [
        {
          "internalType": "bool",
          "name": "",
          "type": "bool"
        }
      ],
      "stateMutability": "view",
      "type": "function"
    },
    {
      "inputs": [],
      "name": "symbol",
      "outputs": [
        {
          "internalType": "string",
          "name": "",
          "type": "string"
        }
      ],
      "stateMutability": "view",
      "type": "function"
    },
    {
      "inputs": [],
      "name": "tokenCounter",
      "outputs": [
        {
          "internalType": "uint256",
          "name": "",
          "type": "uint256"
        }
      ],
      "stateMutability": "view",
      "type": "function"
    },
    {
      "inputs": [
        {
          "internalType": "uint256",
          "name": "tokenId",
          "type": "uint256"
        }
      ],
      "name": "tokenURI",
      "outputs": [
        {
          "internalType": "string",
          "name": "",
          "type": "string"
        }
      ],
      "stateMutability": "view",
      "type": "function"
    },
    {
      "inputs": [
        {
          "internalType": "address",
          "name": "from",
          "type": "address"
        },
        {
          "internalType": "address",
          "name": "to",
          "type": "address"
        },
        {
          "internalType": "uint256",
          "name": "tokenId",
          "type": "uint256"
        }
      ],
      "name": "transferFrom",
      "outputs": [],
      "stateMutability": "nonpayable",
      "type": "function"
    },
    {
      "inputs": [
        {
          "internalType": "address",
          "name": "newOwner",
          "type": "address"
        }
      ],
      "name": "transferOwnership",
      "outputs": [],
      "stateMutability": "nonpayable",
      "type": "function"
    }
  ],
  "bytecode": "0x60806040523480156200001157600080fd5b506040518060400160405280600d81526020017f4e4654436f6c6c656374696f6e000000000000000000000000000000000000008152506040518060400160405280600481526020017f4e46544300000000000000000000000000000000000000000000000000000000815250816000908051906020019062000096929190620001ae565b508060019080519060200190620000af929190620001ae565b505050620000d2620000c6620000e060201b60201c565b620000e860201b60201c565b6000600781905550620002c3565b600033905090565b6000600660009054906101000a900473ffffffffffffffffffffffffffffffffffffffff16905081600660006101000a81548173ffffffffffffffffffffffffffffffffffffffff021916908373ffffffffffffffffffffffffffffffffffffffff1602179055508173ffffffffffffffffffffffffffffffffffffffff168173ffffffffffffffffffffffffffffffffffffffff167f8be0079c531659141344cd1fd0a4f28419497f9722a3daafe3b4186f6b6457e060405160405180910390a35050565b828054620001bc906200028d565b90600052602060002090601f016020900481019282620001e057600085556200022c565b82601f10620001fb57805160ff19168380011785556200022c565b828001600101855582156200022c579182015b828111156200022b5782518255916020019190600101906200020e565b5b5090506200023b91906200023f565b5090565b5b808211156200025a57600081600090555060010162000240565b5090565b7f4e487b7100000000000000000000000000000000000000000000000000000000600052602260045260246000fd5b60006002820490506001821680620002a657607f821691505b60208210811415620002bd57620002bc6200025e565b5b50919050565b61294580620002d36000396000f3fe608060405234801561001057600080fd5b50600436106101215760003560e01c80638da5cb5b116100ad578063b88d4fde11610071578063b88d4fde14610306578063c87b56dd14610322578063d082e38114610352578063e985e9c514610370578063f2fde38b146103a057610121565b80638da5cb5b146102625780638e5a86381461028057806395d89b41146102b0578063a22cb465146102ce578063a3ee38ae146102ea57610121565b806323b872dd116100f457806323b872dd146101c057806342842e0e146101dc5780636352211e146101f857806370a0823114610228578063715018a61461025857610121565b806301ffc9a71461012657806306fdde0314610156578063081812fc14610174578063095ea7b3146101a4575b600080fd5b610140600480360381019061013b9190611a17565b6103bc565b60405161014d9190611a5f565b60405180910390f35b61015e61049e565b60405161016b9190611b13565b60405180910390f35b61018e60048036038101906101899190611b6b565b610530565b60405161019b9190611bd9565b60405180910390f35b6101be60048036038101906101b99190611c20565b610576565b005b6101da60048036038101906101d59190611c60565b61068e565b005b6101f660048036038101906101f19190611c60565b6106ee565b005b610212600480360381019061020d9190611b6b565b61070e565b60405161021f9190611bd9565b60405180910390f35b610242600480360381019061023d9190611cb3565b610795565b60405161024f9190611cef565b60405180910390f35b61026061084d565b005b61026a610861565b6040516102779190611bd9565b60405180910390f35b61029a60048036038101906102959190611b6b565b61088b565b6040516102a79190611b13565b60405180910390f35b6102b8610930565b6040516102c59190611b13565b60405180910390f35b6102e860048036038101906102e39190611d36565b6109c2565b005b61030460048036038101906102ff9190611eab565b6109d8565b005b610320600480360381019061031b9190611fd7565b610a43565b005b61033c60048036038101906103379190611b6b565b610aa5565b6040516103499190611b13565b60405180910390f35b61035a610b4a565b6040516103679190611cef565b60405180910390f35b61038a6004803603810190610385919061205a565b610b50565b6040516103979190611a5f565b60405180910390f35b6103ba60048036038101906103b59190611cb3565b610be4565b005b60007f80ac58cd000000000000000000000000000000000000000000000000000000007bffffffffffffffffffffffffffffffffffffffffffffffffffffffff1916827bffffffffffffffffffffffffffffffffffffffffffffffffffffffff1916148061048757507f5b5e139f000000000000000000000000000000000000000000000000000000007bffffffffffffffffffffffffffffffffffffffffffffffffffffffff1916827bffffffffffffffffffffffffffffffffffffffffffffffffffffffff1916145b80610497575061049682610c68565b5b9050919050565b6060600080546104ad906120c9565b80601f01602080910402602001604051908101604052809291908181526020018280546104d9906120c9565b80156105265780601f106104fb57610100808354040283529160200191610526565b820191906000526020600020905b81548152906001019060200180831161050957829003601f168201915b5050505050905090565b600061053b82610cd2565b6004600083815260200190815260200160002060009054906101000a900473ffffffffffffffffffffffffffffffffffffffff169050919050565b60006105818261070e565b90508073ffffffffffffffffffffffffffffffffffffffff168373ffffffffffffffffffffffffffffffffffffffff1614156105f2576040517f08c379a00000000000000000000000000000000000000000000000000000000081526004016105e99061216d565b60405180910390fd5b8073ffffffffffffffffffffffffffffffffffffffff16610611610d1d565b73ffffffffffffffffffffffffffffffffffffffff161480610640575061063f8161063a610d1d565b610b50565b5b61067f576040517f08c379a0000000000000000000000000000000000000000000000000000000008152600401610676906121ff565b60405180910390fd5b6106898383610d25565b505050565b61069f610699610d1d565b82610dde565b6106de576040517f08c379a00000000000000000000000000000000000000000000000000000000081526004016106d590612291565b60405180910390fd5b6106e9838383610e73565b505050565b61070983838360405180602001604052806000815250610a43565b505050565b60008061071a8361116d565b9050600073ffffffffffffffffffffffffffffffffffffffff168173ffffffffffffffffffffffffffffffffffffffff16141561078c576040517f08c379a0000000000000000000000000000000000000000000000000000000008152600401610783906122fd565b60405180910390fd5b80915050919050565b60008073ffffffffffffffffffffffffffffffffffffffff168273ffffffffffffffffffffffffffffffffffffffff161415610806576040517f08c379a00000000000000000000000000000000000000000000000000000000081526004016107fd9061238f565b60405180910390fd5b600360008373ffffffffffffffffffffffffffffffffffffffff1673ffffffffffffffffffffffffffffffffffffffff168152602001908152602001600020549050919050565b6108556111aa565b61085f6000611228565b565b6000600660009054906101000a900473ffffffffffffffffffffffffffffffffffffffff16905090565b60606009600083815260200190815260200160002080546108ab906120c9565b80601f01602080910402602001604051908101604052809291908181526020018280546108d7906120c9565b80156109245780601f106108f957610100808354040283529160200191610924565b820191906000526020600020905b81548152906001019060200180831161090757829003601f168201915b50505050509050919050565b60606001805461093f906120c9565b80601f016020809104026020016040519081016040528092919081815260200182805461096b906120c9565b80156109b85780601f1061098d576101008083540402835291602001916109b8565b820191906000526020600020905b81548152906001019060200180831161099b57829003601f168201915b5050505050905090565b6109d46109cd610d1d565b83836112ee565b5050565b6109e06111aa565b600060075490506109f1848261145b565b6109fb8184611679565b81600960008381526020019081526020016000209080519060200190610a22929190611908565b50600160076000828254610a3691906123de565b9250508190555050505050565b610a54610a4e610d1d565b83610dde565b610a93576040517f08c379a0000000000000000000000000000000000000000000000000000000008152600401610a8a90612291565b60405180910390fd5b610a9f848484846116a5565b50505050565b6060600860008381526020019081526020016000208054610ac5906120c9565b80601f0160208091040260200160405190810160405280929190818152602001828054610af1906120c9565b8015610b3e5780601f10610b1357610100808354040283529160200191610b3e565b820191906000526020600020905b815481529060010190602001808311610b2157829003601f168201915b50505050509050919050565b60075481565b6000600560008473ffffffffffffffffffffffffffffffffffffffff1673ffffffffffffffffffffffffffffffffffffffff16815260200190815260200160002060008373ffffffffffffffffffffffffffffffffffffffff1673ffffffffffffffffffffffffffffffffffffffff16815260200190815260200160002060009054906101000a900460ff16905092915050565b610bec6111aa565b600073ffffffffffffffffffffffffffffffffffffffff168173ffffffffffffffffffffffffffffffffffffffff161415610c5c576040517f08c379a0000000000000000000000000000000000000000000000000000000008152600401610c53906124a6565b60405180910390fd5b610c6581611228565b50565b60007f01ffc9a7000000000000000000000000000000000000000000000000000000007bffffffffffffffffffffffffffffffffffffffffffffffffffffffff1916827bffffffffffffffffffffffffffffffffffffffffffffffffffffffff1916149050919050565b610cdb81611701565b610d1a576040517f08c379a0000000000000000000000000000000000000000000000000000000008152600401610d11906122fd565b60405180910390fd5b50565b600033905090565b816004600083815260200190815260200160002060006101000a81548173ffffffffffffffffffffffffffffffffffffffff021916908373ffffffffffffffffffffffffffffffffffffffff160217905550808273ffffffffffffffffffffffffffffffffffffffff16610d988361070e565b73ffffffffffffffffffffffffffffffffffffffff167f8c5be1e5ebec7d5bd14f71427d1e84f3dd0314c0f7b2291e5b200ac8c7c3b92560405160405180910390a45050565b600080610dea8361070e565b90508073ffffffffffffffffffffffffffffffffffffffff168473ffffffffffffffffffffffffffffffffffffffff161480610e2c5750610e2b8185610b50565b5b80610e6a57508373ffffffffffffffffffffffffffffffffffffffff16610e5284610530565b73ffffffffffffffffffffffffffffffffffffffff16145b91505092915050565b8273ffffffffffffffffffffffffffffffffffffffff16610e938261070e565b73ffffffffffffffffffffffffffffffffffffffff1614610ee9576040517f08c379a0000000000000000000000000000000000000000000000000000000008152600401610ee090612538565b60405180910390fd5b600073ffffffffffffffffffffffffffffffffffffffff168273ffffffffffffffffffffffffffffffffffffffff161415610f59576040517f08c379a0000000000000000000000000000000000000000000000000000000008152600401610f50906125ca565b60405180910390fd5b610f668383836001611742565b8273ffffffffffffffffffffffffffffffffffffffff16610f868261070e565b73ffffffffffffffffffffffffffffffffffffffff1614610fdc576040517f08c379a0000000000000000000000000000000000000000000000000000000008152600401610fd390612538565b60405180910390fd5b6004600082815260200190815260200160002060006101000a81549073ffffffffffffffffffffffffffffffffffffffff02191690556001600360008573ffffffffffffffffffffffffffffffffffffffff1673ffffffffffffffffffffffffffffffffffffffff168152602001908152602001600020600082825403925050819055506001600360008473ffffffffffffffffffffffffffffffffffffffff1673ffffffffffffffffffffffffffffffffffffffff16815260200190815260200160002060008282540192505081905550816002600083815260200190815260200160002060006101000a81548173ffffffffffffffffffffffffffffffffffffffff021916908373ffffffffffffffffffffffffffffffffffffffff160217905550808273ffffffffffffffffffffffffffffffffffffffff168473ffffffffffffffffffffffffffffffffffffffff167fddf252ad1be2c89b69c2b068fc378daa952ba7f163c4a11628f55a4df523b3ef60405160405180910390a46111688383836001611748565b505050565b60006002600083815260200190815260200160002060009054906101000a900473ffffffffffffffffffffffffffffffffffffffff169050919050565b6111b2610d1d565b73ffffffffffffffffffffffffffffffffffffffff166111d0610861565b73ffffffffffffffffffffffffffffffffffffffff1614611226576040517f08c379a000000000000000000000000000000000000000000000000000000000815260040161121d90612636565b60405180910390fd5b565b6000600660009054906101000a900473ffffffffffffffffffffffffffffffffffffffff16905081600660006101000a81548173ffffffffffffffffffffffffffffffffffffffff021916908373ffffffffffffffffffffffffffffffffffffffff1602179055508173ffffffffffffffffffffffffffffffffffffffff168173ffffffffffffffffffffffffffffffffffffffff167f8be0079c531659141344cd1fd0a4f28419497f9722a3daafe3b4186f6b6457e060405160405180910390a35050565b8173ffffffffffffffffffffffffffffffffffffffff168373ffffffffffffffffffffffffffffffffffffffff16141561135d576040517f08c379a0000000000000000000000000000000000000000000000000000000008152600401611354906126a2565b60405180910390fd5b80600560008573ffffffffffffffffffffffffffffffffffffffff1673ffffffffffffffffffffffffffffffffffffffff16815260200190815260200160002060008473ffffffffffffffffffffffffffffffffffffffff1673ffffffffffffffffffffffffffffffffffffffff16815260200190815260200160002060006101000a81548160ff0219169083151502179055508173ffffffffffffffffffffffffffffffffffffffff168373ffffffffffffffffffffffffffffffffffffffff167f17307eab39ab6107e8899845ad3d59bd9653f200f220920489ca2b5937696c318360405161144e9190611a5f565b60405180910390a3505050565b600073ffffffffffffffffffffffffffffffffffffffff168273ffffffffffffffffffffffffffffffffffffffff1614156114cb576040517f08c379a00000000000000000000000000000000000000000000000000000000081526004016114c29061270e565b60405180910390fd5b6114d481611701565b15611514576040517f08c379a000000000000000000000000000000000000000000000000000000000815260040161150b9061277a565b60405180910390fd5b611522600083836001611742565b61152b81611701565b1561156b576040517f08c379a00000000000000000000000000000000000000000000000000000000081526004016115629061277a565b60405180910390fd5b6001600360008473ffffffffffffffffffffffffffffffffffffffff1673ffffffffffffffffffffffffffffffffffffffff16815260200190815260200160002060008282540192505081905550816002600083815260200190815260200160002060006101000a81548173ffffffffffffffffffffffffffffffffffffffff021916908373ffffffffffffffffffffffffffffffffffffffff160217905550808273ffffffffffffffffffffffffffffffffffffffff16600073ffffffffffffffffffffffffffffffffffffffff167fddf252ad1be2c89b69c2b068fc378daa952ba7f163c4a11628f55a4df523b3ef60405160405180910390a4611675600083836001611748565b5050565b806008600084815260200190815260200160002090805190602001906116a0929190611908565b505050565b6116b0848484610e73565b6116bc8484848461174e565b6116fb576040517f08c379a00000000000000000000000000000000000000000000000000000000081526004016116f29061280c565b60405180910390fd5b50505050565b60008073ffffffffffffffffffffffffffffffffffffffff166117238361116d565b73ffffffffffffffffffffffffffffffffffffffff1614159050919050565b50505050565b50505050565b600061176f8473ffffffffffffffffffffffffffffffffffffffff166118e5565b156118d8578373ffffffffffffffffffffffffffffffffffffffff1663150b7a02611798610d1d565b8786866040518563ffffffff1660e01b81526004016117ba9493929190612881565b602060405180830381600087803b1580156117d457600080fd5b505af192505050801561180557506040513d601f19601f8201168201806040525081019061180291906128e2565b60015b611888573d8060008114611835576040519150601f19603f3d011682016040523d82523d6000602084013e61183a565b606091505b50600081511415611880576040517f08c379a00000000000000000000000000000000000000000000000000000000081526004016118779061280c565b60405180910390fd5b805181602001fd5b63150b7a0260e01b7bffffffffffffffffffffffffffffffffffffffffffffffffffffffff1916817bffffffffffffffffffffffffffffffffffffffffffffffffffffffff1916149150506118dd565b600190505b949350505050565b6000808273ffffffffffffffffffffffffffffffffffffffff163b119050919050565b828054611914906120c9565b90600052602060002090601f016020900481019282611936576000855561197d565b82601f1061194f57805160ff191683800117855561197d565b8280016001018555821561197d579182015b8281111561197c578251825591602001919060010190611961565b5b50905061198a919061198e565b5090565b5b808211156119a757600081600090555060010161198f565b5090565b6000604051905090565b600080fd5b600080fd5b60007fffffffff0000000000000000000000000000000000000000000000000000000082169050919050565b6119f4816119bf565b81146119ff57600080fd5b50565b600081359050611a11816119eb565b92915050565b600060208284031215611a2d57611a2c6119b5565b5b6000611a3b84828501611a02565b91505092915050565b60008115159050919050565b611a5981611a44565b82525050565b6000602082019050611a746000830184611a50565b92915050565b600081519050919050565b600082825260208201905092915050565b60005b83811015611ab4578082015181840152602081019050611a99565b83811115611ac3576000848401525b50505050565b6000601f19601f8301169050919050565b6000611ae582611a7a565b611aef8185611a85565b9350611aff818560208601611a96565b611b0881611ac9565b840191505092915050565b60006020820190508181036000830152611b2d8184611ada565b905092915050565b6000819050919050565b611b4881611b35565b8114611b5357600080fd5b50565b600081359050611b6581611b3f565b92915050565b600060208284031215611b8157611b806119b5565b5b6000611b8f84828501611b56565b91505092915050565b600073ffffffffffffffffffffffffffffffffffffffff82169050919050565b6000611bc382611b98565b9050919050565b611bd381611bb8565b82525050565b6000602082019050611bee6000830184611bca565b92915050565b611bfd81611bb8565b8114611c0857600080fd5b50565b600081359050611c1a81611bf4565b92915050565b60008060408385031215611c3757611c366119b5565b5b6000611c4585828601611c0b565b9250506020611c5685828601611b56565b9150509250929050565b600080600060608486031215611c7957611c786119b5565b5b6000611c8786828701611c0b565b9350506020611c9886828701611c0b565b9250506040611ca986828701611b56565b9150509250925092565b600060208284031215611cc957611cc86119b5565b5b6000611cd784828501611c0b565b91505092915050565b611ce981611b35565b82525050565b6000602082019050611d046000830184611ce0565b92915050565b611d1381611a44565b8114611d1e57600080fd5b50565b600081359050611d3081611d0a565b92915050565b60008060408385031215611d4d57611d4c6119b5565b5b6000611d5b85828601611c0b565b9250506020611d6c85828601611d21565b9150509250929050565b600080fd5b600080fd5b7f4e487b7100000000000000000000000000000000000000000000000000000000600052604160045260246000fd5b611db882611ac9565b810181811067ffffffffffffffff82111715611dd757611dd6611d80565b5b80604052505050565b6000611dea6119ab565b9050611df68282611daf565b919050565b600067ffffffffffffffff821115611e1657611e15611d80565b5b611e1f82611ac9565b9050602081019050919050565b82818337600083830152505050565b6000611e4e611e4984611dfb565b611de0565b905082815260208101848484011115611e6a57611e69611d7b565b5b611e75848285611e2c565b509392505050565b600082601f830112611e9257611e91611d76565b5b8135611ea2848260208601611e3b565b91505092915050565b600080600060608486031215611ec457611ec36119b5565b5b6000611ed286828701611c0b565b935050602084013567ffffffffffffffff811115611ef357611ef26119ba565b5b611eff86828701611e7d565b925050604084013567ffffffffffffffff811115611f2057611f1f6119ba565b5b611f2c86828701611e7d565b9150509250925092565b600067ffffffffffffffff821115611f5157611f50611d80565b5b611f5a82611ac9565b9050602081019050919050565b6000611f7a611f7584611f36565b611de0565b905082815260208101848484011115611f9657611f95611d7b565b5b611fa1848285611e2c565b509392505050565b600082601f830112611fbe57611fbd611d76565b5b8135611fce848260208601611f67565b91505092915050565b60008060008060808587031215611ff157611ff06119b5565b5b6000611fff87828801611c0b565b945050602061201087828801611c0b565b935050604061202187828801611b56565b925050606085013567ffffffffffffffff811115612042576120416119ba565b5b61204e87828801611fa9565b91505092959194509250565b60008060408385031215612071576120706119b5565b5b600061207f85828601611c0b565b925050602061209085828601611c0b565b9150509250929050565b7f4e487b7100000000000000000000000000000000000000000000000000000000600052602260045260246000fd5b600060028204905060018216806120e157607f821691505b602082108114156120f5576120f461209a565b5b50919050565b7f4552433732313a20617070726f76616c20746f2063757272656e74206f776e6560008201527f7200000000000000000000000000000000000000000000000000000000000000602082015250565b6000612157602183611a85565b9150612162826120fb565b604082019050919050565b600060208201905081810360008301526121868161214a565b9050919050565b7f4552433732313a20617070726f76652063616c6c6572206973206e6f7420746f60008201527f6b656e206f776e6572206f7220617070726f76656420666f7220616c6c000000602082015250565b60006121e9603d83611a85565b91506121f48261218d565b604082019050919050565b60006020820190508181036000830152612218816121dc565b9050919050565b7f4552433732313a2063616c6c6572206973206e6f7420746f6b656e206f776e6560008201527f72206f7220617070726f76656400000000000000000000000000000000000000602082015250565b600061227b602d83611a85565b91506122868261221f565b604082019050919050565b600060208201905081810360008301526122aa8161226e565b9050919050565b7f4552433732313a20696e76616c696420746f6b656e2049440000000000000000600082015250565b60006122e7601883611a85565b91506122f2826122b1565b602082019050919050565b60006020820190508181036000830152612316816122da565b9050919050565b7f4552433732313a2061646472657373207a65726f206973206e6f74206120766160008201527f6c6964206f776e65720000000000000000000000000000000000000000000000602082015250565b6000612379602983611a85565b91506123848261231d565b604082019050919050565b600060208201905081810360008301526123a88161236c565b9050919050565b7f4e487b7100000000000000000000000000000000000000000000000000000000600052601160045260246000fd5b60006123e982611b35565b91506123f483611b35565b9250827fffffffffffffffffffffffffffffffffffffffffffffffffffffffffffffffff03821115612429576124286123af565b5b828201905092915050565b7f4f776e61626c653a206e6577206f776e657220697320746865207a65726f206160008201527f6464726573730000000000000000000000000000000000000000000000000000602082015250565b6000612490602683611a85565b915061249b82612434565b604082019050919050565b600060208201905081810360008301526124bf81612483565b9050919050565b7f4552433732313a207472616e736665722066726f6d20696e636f72726563742060008201527f6f776e6572000000000000000000000000000000000000000000000000000000602082015250565b6000612522602583611a85565b915061252d826124c6565b604082019050919050565b6000602082019050818103600083015261255181612515565b9050919050565b7f4552433732313a207472616e7366657220746f20746865207a65726f2061646460008201527f7265737300000000000000000000000000000000000000000000000000000000602082015250565b60006125b4602483611a85565b91506125bf82612558565b604082019050919050565b600060208201905081810360008301526125e3816125a7565b9050919050565b7f4f776e61626c653a2063616c6c6572206973206e6f7420746865206f776e6572600082015250565b6000612620602083611a85565b915061262b826125ea565b602082019050919050565b6000602082019050818103600083015261264f81612613565b9050919050565b7f4552433732313a20617070726f766520746f2063616c6c657200000000000000600082015250565b600061268c601983611a85565b915061269782612656565b602082019050919050565b600060208201905081810360008301526126bb8161267f565b9050919050565b7f4552433732313a206d696e7420746f20746865207a65726f2061646472657373600082015250565b60006126f8602083611a85565b9150612703826126c2565b602082019050919050565b60006020820190508181036000830152612727816126eb565b9050919050565b7f4552433732313a20746f6b656e20616c7265616479206d696e74656400000000600082015250565b6000612764601c83611a85565b915061276f8261272e565b602082019050919050565b6000602082019050818103600083015261279381612757565b9050919050565b7f4552433732313a207472616e7366657220746f206e6f6e20455243373231526560008201527f63656976657220696d706c656d656e7465720000000000000000000000000000602082015250565b60006127f6603283611a85565b91506128018261279a565b604082019050919050565b60006020820190508181036000830152612825816127e9565b9050919050565b600081519050919050565b600082825260208201905092915050565b60006128538261282c565b61285d8185612837565b935061286d818560208601611a96565b61287681611ac9565b840191505092915050565b60006080820190506128966000830187611bca565b6128a36020830186611bca565b6128b06040830185611ce0565b81810360608301526128c28184612848565b905095945050505050565b6000815190506128dc816119eb565b92915050565b6000602082840312156128f8576128f76119b5565b5b6000612906848285016128cd565b9150509291505056fea2646970667358221220b3a53ce60def5ef1faa3cebdbc48b6e62a18ba0cb1f2239b69b30437cfa5aa5464736f6c63430008090033",
  "linkReferences": {},
  "deployedLinkReferences": {}
}